:03000000020008F3
:0300610002000397
:0500030012006480FE04
:070064001201699005501222
:09006B0001E6750D007582011219
:09007400022990055A75F0801272
:02007D0001BBC5
:02007F0080FE01
:0A0550006E6577737472696E6700C0
:05055A002140232400F4
:0E008100AC82AD83AEF0FFC004C005C006C067
:0E008F000790680075F03F7446120290AC8234
:0E009D00AD83AEF0FFE58124FCF581E4C0E008
:0E00AB00C0E07480C0E0743FC0E08C828D83A2
:0E00B9008EF0EF12038AAC82AD83AEF0FFE54D
:0D00C7008124FCF5818C828D838EF0EF1278
:0A00D40003E3AE82AF837C007D00E1
:0E00DE00C3EE9CEF64808DF063F08095F040DF
:0800EC00070CBC00ED0D80EAD9
:0100F40022E9
:0E00F500AC82AD83AEF0FFC004C005C006C0F3
:0E0103000790000075F0447441120290AC8227
:0E011100AD83AEF0FFE58124FCF581E4C0E093
:0E011F00C0E07480C0E0743FC0E08C828D832D
:0E012D008EF0EF12038AAC82AD83AEF0FFE5D8
:0D013B008124FCF5818C828D838EF0EF1203
:0A01480003E3AE82AF837C007D006C
:0E015200C3EE9CEF64808DF063F08095F0406A
:08016000070CBC00ED0D80EA64
:010168002274
:0E01690075840075A33475A2FF75840F759C14
:0B017700C0759EFF759FFF7508B490D7
:0A018200055FE493FF24B4F509754E
:0C018C000AB4900560E49324B4FE2FF543
:070198000B8E0C75823C1276
:0E019F00025890000075F01474421200F575BD
:0C01AD00820E12025875820612027902BE
:0201B900024BF7
:0601BB00AD82AE83AFF03F
:0E01C1008D828E838FF0120480FC60188C8279
:0E01CF00C007C006C00512026BD005D006D0D6
:0801DD00070DBD00DF0E80DC00
:0101E50022F7
:0401E600AE82AF83B3
:0E01EA008E828F83E493FD60148D82C007C067
:0E01F8000612026BD006D0070EBE00E60F8086
:01020600E314
:0102070022D4
:04020800AE82AF8390
:0E020C008E828F83E0FD60148D82C007C006D5
:0E021A0012026BD006D0070EBE00E70F80E484
:0102280022B3
:0E022900E5825401030354C0FF430780740FA5
:08023700550D4FF5820202791A
:0C023F00AF82740F5F440CF5820202795C
:06024B0075820102027938
:07025100AF82A909EFF322BF
:07025800AF82A90AEFF322B7
:06025F00A90BE3F5822269
:06026500A90CE3F5822262
:0E026B00AF82C007120287D0078F82020251B5
:0E027900AF82C007120287D0078F82020258A0
:09028700120265E58220E7F8226D
:01055F000299
:010560000199
:06029000120333BC000361
:0302960002043827
:08029900EF60FA30D502B2D18A
:0802A100E583B4FF0302044EE3
:0802A900E582B4FF0302044EDC
:0B02B100258340072482400B02043824
:0802BC00248314500302044ED8
:0E02C400F582EA8DF0A4A8F0EA8EF0A428F8E6
:0E02D200E435F0F9EB8DF0A428E935F0F9E4FD
:0E02E00033CA8FF0A429F9EA35F0FAEBF88E54
:0E02EE00F0A429F9EA35F0FAE433FBEC8DF0C8
:0E02FC00A429F9EA35F0FAE43BFBE88FF0A400
:0E030A002AFAEB35F0FBE433CCFD8EF0A42A8A
:0E031800FAEB35F0FBE43CFCED8FF0A42BFB80
:0A032600EC35F0FC20E70312036140
:03033000020417AD
:0D033300AA82AB83A2F73392D16002D2F709
:0E034000F582ACF0E58124F9F8E6FD08E6FE52
:0E034E000886F008E6A2F73392D56002D2F7D7
:05035C00F583AFF02263
:06003700E478FFF6D8FD9D
:0203610078041E
:0E036300EC700DC9CACBFCE58224F8F582D8F7
:02037100F12277
:020373007820F0
:0E03750020E7111582C3E933F9EA33FAEB33BE
:06038300FBEC33FCD8EC9A
:010389002251
:080015007900E94400601B7A48
:05001D00009005617870
:030022000075A2C4
:0A00250000E493F2A308B8000205FE
:08002F00A2D9F4DAF275A2FF78
:03038A0012033328
:09038D007900E583B58202800DC0
:05039600500312046693
:08039B00E583C3958212049C66
:0803A300E5D0C465D020E1178C
:0E03AB00EA2DFAEB3EFBEC3FFC500974011208
:0603B900049CEC4480FCF2
:0303BF000204171E
:0E03C200C3EA9DFAEB9EFBEC9FFC500FC3E4D8
:0D03D00099F9E49AFAE49BFBE49CFCB2D19D
:0603DD0012036102041787
:08003D007800E84400600A7934
:030045000075A2A1
:0600480000E4F309D8FCFE
:08004E007800E84400600C7921
:0B00560000900000E4F0A3D8FCD9FAF1
:0E03E3001204DF700AE582458345F0700122A6
:0103F100E427
:0303F20030D112F5
:0E03F500F4700BE5F0F47006E58330E70122AA
:0404030090800022C3
:0C040700700AE5F07006E58320E7012292
:04041300907FFF22B5
:06041700B98003EA13B3F3
:0E041D004010EA2401FAE43BFBE43CFC5004EE
:04042B007C8005824A
:09042F00BC000EBB000BBA000872
:08043800E4F5F0F583F58222E2
:0E044000A2D1E582138CF092F78B838A822280
:0D044E00E4F583F58275F080F4A2D113224D
:0B045B00E4F583F58275F0C0747F2289
:0E046600E582C583F582A2D133A2D592D113CF
:0C04740092D5ECCFFCEBCEFBEACDFA22D7
:0300080075810DF2
:0A000B0012053AE5826003020003CB
:0E04800020F71430F6148883A88220F507E6D2
:06048E00A8837583002223
:03049400E280F70C
:03049700E49322C9
:02049A00E0225E
:09049C006040F82582500274FF53
:0E04A500F582E824F8501ECCCBCAF9E4CC2432
:0E04B300F85014CBCAF9E4CB24F8500BCAF968
:0904C100E4CA24F850037900227A
:0504CA0024086010F899
:0E04CF00C3EC13FCEB13FBEA13FAE913F9D8A4
:0104DD00F12D
:0104DE0022FB
:0A04DF0012053EC3749E9582403959
:0804E900790012049C30D126B9
:0E04F100E9F42401F582EAF43400F583EBF41B
:0E04FF003400F5F0ECF43400700AE582458319
:05050D0045F070012221
:01051200E404
:0405130030E70F229C
:0B051700EC20E71489828A838BF0221D
:0305220030D10ACB
:0A052500E4F582F583F5F0748022FE
:0B052F0074FFF582F583F5F0747F2265
:04053A0075820022A4
:0D053E00AA82AB83A2F73392D16002D2F7FC
:05054B00F582ACF02276
:00000001FF
